:100000000C9453000C947B000C947B000C947B00AC
:100010000C947B000C947B000C947B000C947B0074
:100020000C947B000C947B000C947B000C947B0064
:100030000C947B000C947B000C947B000C947B0054
:100040000C9400020C947B000C9470020C944A02F5
:100050000C947B000C947B000C947B000C947B0034
:100060000C947B000C947B0000000000250028000D
:100070002B0000000000240027002A0004040404D0
:100080000404040402020202020203030303030342
:10009000010204081020408001020408102001021F
:1000A00004081020760411241FBECFEFD8E0DEBF75
:1000B000CDBF11E0A0E0B1E0E2E1FEE002C00590BA
:1000C0000D92A834B107D9F721E0A8E4B1E001C04E
:1000D0001D92A43FB207E1F710E0C3E5D0E004C0F1
:1000E0002197FE010E940107C235D107C9F70E947E
:1000F000A2020C9407070C9400003FB7F89480917B
:10010000530190915401A0915501B091560126B52B
:10011000A89B05C02F3F19F00196A11DB11D3FBF3F
:10012000BA2FA92F982F8827BC01CD01620F711D0E
:10013000811D911D42E0660F771F881F991F4A9508
:10014000D1F70895AF92BF92CF92DF92EF92FF92D4
:100150000F931F93CF93DF936C017B018B01040FEF
:10016000151FEB015E01AE18BF08C017D10759F08B
:100170006991D601ED91FC910190F081E02DC601CD
:100180000995892B79F7C501DF91CF911F910F91C7
:10019000FF90EF90DF90CF90BF90AF900895FC015B
:1001A000538D448D252F30E0842F90E0821B930BDC
:1001B000541710F0CF96089501970895FC01918D82
:1001C000828D981761F0A28DAE0FBF2FB11D5D9685
:1001D0008C91928D9F5F9F73928F90E008958FEF27
:1001E0009FEF0895FC01918D828D981731F0828DDB
:1001F000E80FF11D858D90E008958FEF9FEF089532
:10020000FC01918D228D892F90E0805C9F4F821B95
:1002100091098F739927089587E591E00E94000165
:1002200021E0892B09F420E0822F089580E090E0FE
:10023000892B29F00E940C0181110C940000089573
:10024000FC01A48DA80FB92FB11DA35ABF4F2C914B
:10025000848D90E001968F739927848FA689B78942
:100260002C93A089B1898C91837080648C93938D39
:10027000848D981306C00288F389E02D80818F7DDC
:1002800080830895EF92FF920F931F93CF93DF9394
:10029000EC0181E0888F9B8D8C8D98131AC0E889C2
:1002A000F989808185FF15C09FB7F894EE89FF8991
:1002B0006083E889F98980818370806480839FBF2F
:1002C00081E090E0DF91CF911F910F91FF90EF902F
:1002D0000895F62E0B8D10E00F5F1F4F0F7311273F
:1002E000E02E8C8D8E110CC00FB607FCFACFE8897A
:1002F000F989808185FFF5CFCE010E942001F1CFE1
:10030000EB8DEC0FFD2FF11DE35AFF4FF0829FB7ED
:10031000F8940B8FEA89FB8980818062CFCFCF93DD
:10032000DF93EC01888D8823B9F0AA89BB89E8891D
:10033000F9898C9185FD03C0808186FD0DC00FB6C3
:1003400007FCF7CF8C9185FFF2CF808185FFEDCF41
:10035000CE010E942001E9CFDF91CF910895FC01E9
:1003600001900020E9F73197AF01481B590BBC0100
:1003700087E591E00C94A2008F929F92AF92BF927A
:100380000F931F93CF93DF93CDB7DEB7A1970FB62F
:10039000F894DEBF0FBECDBF19A2423008F44AE088
:1003A0008E010F5D1F4F842E912CB12CA12CA50125
:1003B00094010E94DF06E62FB901CA01EA30F4F485
:1003C000E05DD801EE938D01232B242B252B79F7AB
:1003D00090E080E0109719F0CD010E94AF01A19646
:1003E0000FB6F894DEBF0FBECDBFDF91CF911F9146
:1003F0000F91BF90AF909F908F900895E95CE1CFEF
:100400001F920F920FB60F9211242F933F938F9349
:100410009F93AF93BF9380914F0190915001A09112
:100420005101B091520130914E0123E0230F2D373D
:1004300058F50196A11DB11D20934E0180934F01E7
:1004400090935001A0935101B093520180915301B8
:1004500090915401A0915501B09156010196A11DB2
:10046000B11D8093530190935401A0935501B09313
:100470005601BF91AF919F918F913F912F910F9016
:100480000FBE0F901F90189526E8230F0296A11D0E
:10049000B11DD2CF1F920F920FB60F9211242F933E
:1004A0003F934F935F936F937F938F939F93AF93FC
:1004B000BF93EF93FF9387E591E00E942001FF91A6
:1004C000EF91BF91AF919F918F917F916F915F91CC
:1004D0004F913F912F910F900FBE0F901F90189545
:1004E0001F920F920FB60F9211242F938F939F9309
:1004F000EF93FF93E0916701F09168018081E091B3
:100500006D01F0916E0182FD1BC0908180917001A0
:100510008F5F8F7320917101821741F0E09170011C
:10052000F0E0E95AFE4F958F80937001FF91EF91B3
:100530009F918F912F910F900FBE0F901F90189544
:100540008081F4CF789484B5826084BD84B5816065
:1005500084BD85B5826085BD85B5816085BD80918E
:100560006E00816080936E00109281008091810006
:1005700082608093810080918100816080938100FE
:10058000809180008160809380008091B1008460C0
:100590008093B1008091B00081608093B000809121
:1005A0007A00846080937A0080917A0082608093E0
:1005B0007A0080917A00816080937A0080917A003D
:1005C000806880937A001092C100E0916701F091F9
:1005D000680182E08083E0916301F0916401108200
:1005E000E0916501F09166018FEC808310926F01BC
:1005F000E0916B01F0916C0186E08083E0916901EC
:10060000F0916A01808180618083E0916901F091BD
:100610006A01808188608083E0916901F0916A01BC
:10062000808180688083E0916901F0916A01808116
:100630008F7D8083EEE9F0E02491EAE8F0E0849198
:100640008823C1F090E0880F991FFC01EE58FF4FFE
:10065000C591D491FC01E859FF4FA591B4919FB782
:10066000F8948881E22FE0958E2388838C91E8238B
:10067000EC939FBF10E4C0E0D0E010937C00809129
:100680007A00806480937A0080917A0086FDFCCFA6
:10069000609178007091790070934D0160934C01E6
:1006A000072E000C880B990B0E94B80520E030E063
:1006B00040EA50E40E946D0620E030EC4FE754E43D
:1006C0000E94150520E030E048EC52E40E946D06DF
:1006D000609348017093490180934A0190934B01C4
:1006E00082E191E00E94AF01C0904C01D0904D0199
:1006F0000D2C000CEE08FF084AE0C701B601F7FE1A
:100700000DC06DE287E591E00E94420166277727E0
:10071000CB016C197D098E099F094AE00E94BC013A
:1007200087E291E00E94AF018AE291E00E94AF016E
:10073000C0904801D0904901E0904A01F0904B01EF
:10074000A7019601C701B6010E94DA068823E1F1EC
:1007500089E391E00E94AF0185E491E00E94AF013E
:1007600087E291E00E94AF010E947D004B015C0195
:1007700088EEC82E83E0D82EE12CF12C0E947D005B
:10078000681979098A099B09683E734081059105BA
:10079000A8F321E0C21AD108E108F10888EE880E1A
:1007A00083E0981EA11CB11CC114D104E104F10422
:1007B00029F7209709F461CF0E940C01882309F4DE
:1007C0005CCF0E94000059CF46015701E894B7F86A
:1007D0002FEF3FEF4FE75FE7C501B4010E94DA0654
:1007E00081110DC02FEF3FEF4FE75FE7C501B40167
:1007F0000E94100518161CF48DE391E0ABCF2FEF8B
:100800003FEF4FE75FE4C701B6010E946806181684
:100810001CF481E491E09ECF2FEF3FEF4FE75FECB8
:10082000C701B6010E94100587FDF3CF20E030E03C
:10083000A901C701B6010E94100587FF09C06DE23A
:1008400087E591E00E944201F7FAF094F7F8F094FE
:100850002AE037ED43EA5BE3C701B6010E94A40436
:100860004B015C010E9487056B017C010E94B6056B
:100870009B01AC01C501B4010E94A3044B015C01C2
:100880004AE0C701B6010E94BC016EE287E591E033
:100890000E94420120E030E040E251E4C501B40191
:1008A0000E946D064B015C010E9487056B01F12CD3
:1008B000E12C4AE0C701B6010E94BC01C701B601A4
:1008C0000E94B6059B01AC01C501B4010E94A304BE
:1008D00020E030E040E251E40E946D060E9487056E
:1008E00090E080E04AE00E94BC0136CFE7E5F1E00D
:1008F0001382128288EE93E0A0E0B0E084839583B7
:10090000A683B78384E091E09183808385EC90E0B7
:100910009587848784EC90E09787868780EC90E0C9
:10092000918B808B81EC90E0938B828B82EC90E0BA
:10093000958B848B86EC90E0978B868B118E128E34
:10094000138E148E08955058BB27AA270E94BB040B
:100950000C942E060E94200638F00E94270620F0F4
:1009600039F49F3F19F426F40C941D060EF4E0951B
:10097000E7FB0C941706E92F0E943F0658F3BA17BD
:10098000620773078407950720F079F4A6F50C94A5
:1009900061060EF4E0950B2EBA2FA02D0B01B901C4
:1009A00090010C01CA01A0011124FF27591B99F0E5
:1009B000593F50F4503E68F11A16F040A22F232FF1
:1009C000342F4427585FF3CF469537952795A79541
:1009D000F0405395C9F77EF41F16BA0B620B730BE8
:1009E000840BBAF09150A1F0FF0FBB1F661F771F59
:1009F000881FC2F70EC0BA0F621F731F841F48F40E
:100A0000879577956795B795F7959E3F08F0B0CF96
:100A10009395880F08F09927EE0F9795879508957D
:100A20000E94F30508F481E008950E9429050C94C2
:100A30002E060E94270658F00E94200640F029F456
:100A40005F3F29F00C94170651110C9462060C9428
:100A50001D060E943F0668F39923B1F3552391F3D5
:100A6000951B550BBB27AA2762177307840738F01D
:100A70009F5F5F4F220F331F441FAA1FA9F335D07A
:100A80000E2E3AF0E0E832D091505040E695001C2E
:100A9000CAF72BD0FE2F29D0660F771F881FBB1FE8
:100AA000261737074807AB07B0E809F0BB0B802DC6
:100AB000BF01FF2793585F4F3AF09E3F510578F0F2
:100AC0000C9417060C9462065F3FE4F3983ED4F34F
:100AD000869577956795B795F7959F5FC9F7880FC6
:100AE000911D9695879597F90895E1E0660F771F18
:100AF000881FBB1F621773078407BA0720F0621BA9
:100B0000730B840BBA0BEE1F88F7E09508950E94D3
:100B1000470688F09F5798F0B92F9927B751B0F042
:100B2000E1F0660F771F881F991F1AF0BA95C9F771
:100B300014C0B13091F00E946106B1E008950C94A8
:100B40006106672F782F8827B85F39F0B93FCCF35B
:100B5000869577956795B395D9F73EF490958095EE
:100B6000709561957F4F8F4F9F4F0895E89409C00E
:100B700097FB3EF490958095709561957F4F8F4FD0
:100B80009F4F9923A9F0F92F96E9BB279395F695E6
:100B9000879577956795B795F111F8CFFAF4BB0F64
:100BA00011F460FF1BC06F5F7F4F8F4F9F4F16C0C8
:100BB000882311F096E911C0772321F09EE8872F52
:100BC000762F05C0662371F096E8862F70E060E00E
:100BD0002AF09A95660F771F881FDAF7880F969587
:100BE000879597F90895990F0008550FAA0BE0E82B
:100BF000FEEF16161706E807F907C0F012161306DF
:100C0000E407F50798F0621B730B840B950B39F41E
:100C10000A2661F0232B242B252B21F408950A2684
:100C200009F4A140A6958FEF811D811D089597F9C4
:100C30009F6780E870E060E008959FEF80EC089582
:100C400000240A94161617061806090608950024AB
:100C50000A9412161306140605060895092E039425
:100C6000000C11F4882352F0BB0F40F4BF2B11F499
:100C700060FF04C06F5F7F4F8F4F9F4F089557FDF8
:100C80009058440F551F59F05F3F71F04795880FFA
:100C900097FB991F61F09F3F79F087950895121691
:100CA00013061406551FF2CF4695F1DF08C016163D
:100CB00017061806991FF1CF8695710561050894EE
:100CC0000895E894BB2766277727CB0197F9089505
:100CD0000E94F30508F48FEF08950E9480060C949B
:100CE0002E060E94200638F00E94270620F0952349
:100CF00011F00C9417060C941D0611240C94620636
:100D00000E943F0670F3959FC1F3950F50E0551F69
:100D1000629FF001729FBB27F00DB11D639FAA2750
:100D2000F00DB11DAA1F649F6627B00DA11D661F9F
:100D3000829F2227B00DA11D621F739FB00DA11DC0
:100D4000621F839FA00D611D221F749F3327A00D7A
:100D5000611D231F849F600D211D822F762F6A2F16
:100D600011249F5750409AF0F1F088234AF0EE0F7B
:100D7000FF1FBB1F661F771F881F91505040A9F7A8
:100D80009E3F510580F00C9417060C9462065F3F5D
:100D9000E4F3983ED4F3869577956795B795F795E4
:100DA000E7959F5FC1F7FE2B880F911D969587955C
:100DB00097F908950E94F305880B990B0895A1E215
:100DC0001A2EAA1BBB1BFD010DC0AA1FBB1FEE1FC5
:100DD000FF1FA217B307E407F50720F0A21BB30B10
:100DE000E40BF50B661F771F881F991F1A9469F78C
:100DF00060957095809590959B01AC01BD01CF01E8
:100E00000895EE0FFF1F0590F491E02D0994F894DA
:020E1000FFCF12
:100E1200000000004201A200CF008F010001DE00AD
:100E2200F2004C612076616C657572206C756520EC
:100E3200657374203A20000D0A0054656D70657266
:100E42006174657572203A20006E616E00696E668B
:080E5200006F766600204300EA
:00000001FF
