:020000040000FA
:100000000C9462000C948A000C948A000C948A0070
:100010000C948A000C948A000C948A000C948A0038
:100020000C948A000C948A000C948A000C948A0028
:100030000C948A000C948A000C948A000C948A0018
:100040000C9473020C948A000C94E3020C94BD028D
:100050000C948A000C948A000C948A000C948A00F8
:100060000C948A000C948A000000000023002600F3
:10007000290000000008000201000003040700003E
:1000800000000000000000000000250028002B00F8
:1000900000000000240027002A00040404040404D3
:1000A0000404020202020202030303030303010227
:1000B00004081020408001020408102001020408F6
:1000C0001020DA0311241FBECFEFD8E0DEBFCDBF72
:1000D00011E0A0E0B1E0EEE1F8E002C005900D9281
:1000E000A432B107D9F721E0A4E2B1E001C01D922A
:1000F000AA3CB207E1F710E0C2E6D0E004C02197C5
:10010000FE010E940704C136D107C9F70E941503FA
:100110000C940D040C940000CF93DF9390E0FC014D
:10012000E255FF4F249186569F4FFC01849188230E
:10013000C1F090E0880F991FFC01E057FF4FC59177
:10014000D491FC01EA57FF4FA591B4919FB7F89461
:100150008881E22FE0958E2388838C91E823EC93AD
:100160009FBFDF91CF91089590E0FC01EE58FF4FC3
:100170002491FC01E255FF4F3491FC01E656FF4FFC
:10018000E491EE23C1F1222339F02330E9F090F419
:10019000213001F1223011F1F0E0EE0FFF1FE8599C
:1001A000FF4FA591B491EC91E32381E090E029F514
:1001B00080E008952730A9F02830C9F0243061F795
:1001C000809180008F7D03C0809180008F77809325
:1001D0008000E2CF84B58F7784BDDECF84B58F7D7C
:1001E000FBCF8091B0008F778093B000D5CF809106
:1001F000B0008F7DF9CF80E090E008953FB7F8948C
:100200008091290190912A01A0912B01B0912C019C
:1002100026B5A89B05C02F3F19F00196A11DB11D61
:100220003FBFBA2FA92F982F8827BC01CD01620F9D
:10023000711D811D911D42E0660F771F881F991F58
:100240004A95D1F708958F929F92AF92BF92CF9225
:10025000DF92EF92FF920E94FE004B015C0184EF5F
:10026000C82EDD24D394E12CF12C0E94FE006819E5
:1002700079098A099B09683E734081059105A8F3B5
:1002800021E0C21AD108E108F10888EE880E83E067
:10029000981EA11CB11CC114D104E104F10429F77A
:1002A000FF90EF90DF90CF90BF90AF909F908F9096
:1002B0000895AF92BF92CF92DF92EF92FF920F9389
:1002C0001F93CF93DF936C017B018B01040F151FEC
:1002D000EB015E01AE18BF08C017D10759F0699154
:1002E000D601ED91FC910190F081E02DC6010995B8
:1002F000892B79F7C501DF91CF911F910F91FF9065
:10030000EF90DF90CF90BF90AF900895FC01538D98
:10031000448D252F30E0842F90E0821B930B5417DF
:1003200010F0CF96089501970895FC01918D828D6C
:10033000981761F0A28DAE0FBF2FB11D5D968C9105
:10034000928D9F5F9F73928F90E008958FEF9FEF44
:100350000895FC01918D828D981731F0828DE80F00
:10036000F11D858D90E008958FEF9FEF0895FC01BA
:10037000918D228D892F90E0805C9F4F821B910987
:100380008F73992708958DE291E00E94B70121E0D3
:10039000892B09F420E0822F089580E090E0892BDA
:1003A00029F00E94C30181110C9400000895FC0102
:1003B000A48DA80FB92FB11DA35ABF4F2C91848DC6
:1003C00090E001968F739927848FA689B7892C9323
:1003D000A089B1898C91837080648C93938D848D76
:1003E000981306C00288F389E02D80818F7D808379
:1003F0000895EF92FF920F931F93CF93DF93EC0139
:1004000081E0888F9B8D8C8D98131AC0E889F989BB
:10041000808185FF15C09FB7F894EE89FF896083BE
:10042000E889F98980818370806480839FBF81E03F
:1004300090E0DF91CF911F910F91FF90EF90089581
:10044000F62E0B8D10E00F5F1F4F0F731127E02E5C
:100450008C8D8E110CC00FB607FCFACFE889F98994
:10046000808185FFF5CFCE010E94D701F1CFEB8DC2
:10047000EC0FFD2FF11DE35AFF4FF0829FB7F89468
:100480000B8FEA89FB8980818062CFCFCF93DF9386
:10049000EC01888D8823B9F0AA89BB89E889F9899C
:1004A0008C9185FD03C0808186FD0DC00FB607FCD1
:1004B000F7CF8C9185FFF2CF808185FFEDCFCE0104
:1004C0000E94D701E9CFDF91CF910895FC010190FF
:1004D0000020E9F73197AF01481B590BBC018DE2B1
:1004E00091E00C9459011F920F920FB60F921124B4
:1004F0002F933F938F939F93AF93BF938091250149
:1005000090912601A0912701B091280130912401FA
:1005100023E0230F2D3758F50196A11DB11D20931F
:1005200024018093250190932601A0932701B09385
:1005300028018091290190912A01A0912B01B0916D
:100540002C010196A11DB11D8093290190932A01D0
:10055000A0932B01B0932C01BF91AF919F918F91EC
:100560003F912F910F900FBE0F901F90189526E886
:10057000230F0296A11DB11DD2CF1F920F920FB66D
:100580000F9211242F933F934F935F936F937F9319
:100590008F939F93AF93BF93EF93FF938DE291E07F
:1005A0000E94D701FF91EF91BF91AF919F918F91E1
:1005B0007F916F915F914F913F912F910F900FBE5F
:1005C0000F901F9018951F920F920FB60F92112443
:1005D0002F938F939F93EF93FF93E0913D01F091C1
:1005E0003E018081E0914301F091440182FD1BC0F6
:1005F0009081809146018F5F8F7320914701821710
:1006000041F0E0914601F0E0E35DFE4F958F80936D
:100610004601FF91EF919F918F912F910F900FBE07
:100620000F901F9018958081F4CF789484B58260E4
:1006300084BD84B5816084BD85B5826085BD85B586
:10064000816085BD80916E00816080936E00109204
:10065000810080918100826080938100809181007F
:100660008160809381008091800081608093800010
:100670008091B10084608093B1008091B00081606E
:100680008093B00080917A00846080937A0080919A
:100690007A00826080937A0080917A0081608093F2
:1006A0007A0080917A00806880937A001092C1006D
:1006B000E0913D01F0913E0182E08083E0913901BB
:1006C000F0913A011082E0913B01F0913C018FECF6
:1006D000808310924501E0914101F091420186E052
:1006E0008083E0913F01F0914001808180618083AF
:1006F000E0913F01F0914001808188608083E0912A
:100700003F01F0914001808180688083E0913F014A
:10071000F091400180818F7D808385E00E948C0074
:1007200084E00E948C0087E00E948C00C0E0D0E052
:1007300085E00E94B400019729F582E191E00E94D2
:1007400066020E94230184E00E94B400019711F523
:1007500080E291E00E9466020E94230187E00E94ED
:10076000B4000197F9F48BE191E00E9466020E94C7
:1007700023012097E9F20E94C3018823C9F20E9455
:100780000000D6CF85E00E94B400892BE1F685E118
:1007900091E0D5CF84E00E94B400892BF9F688E17E
:1007A00091E0D8CF87E00E94B400892B11F78FE148
:1007B00091E0DBCFEDE2F1E01382128288EE93E06C
:1007C000A0E0B0E084839583A683B78384E091E0C2
:1007D0009183808385EC90E09587848784EC90E01A
:1007E0009787868780EC90E0918B808B81EC90E0FE
:1007F000938B828B82EC90E0958B848B86EC90E0DF
:10080000978B868B118E128E138E148E0895EE0F99
:10081000FF1F0590F491E02D0994F894FFCF00009C
:100820000000F901590186014602B7019501A901AD
:100830003130003030003031003131310030313171
:020840000000B6
:107E0000112484B714BE81FFF0D085E080938100F7
:107E100082E08093C00088E18093C10086E0809377
:107E2000C20080E18093C4008EE0C9D0259A86E02C
:107E300020E33CEF91E0309385002093840096BBD3
:107E4000B09BFECF1D9AA8958150A9F7CC24DD24C4
:107E500088248394B5E0AB2EA1E19A2EF3E0BF2EE7
:107E6000A2D0813461F49FD0082FAFD0023811F036
:107E7000013811F484E001C083E08DD089C08234E0
:107E800011F484E103C0853419F485E0A6D080C0E4
:107E9000853579F488D0E82EFF2485D0082F10E0AE
:107EA000102F00270E291F29000F111F8ED06801E7
:107EB0006FC0863521F484E090D080E0DECF843638
:107EC00009F040C070D06FD0082F6DD080E0C81688
:107ED00080E7D80618F4F601B7BEE895C0E0D1E017
:107EE00062D089930C17E1F7F0E0CF16F0E7DF06D8
:107EF00018F0F601B7BEE89568D007B600FCFDCFD4
:107F0000A601A0E0B1E02C9130E011968C91119780
:107F100090E0982F8827822B932B1296FA010C0160
:107F200087BEE89511244E5F5F4FF1E0A038BF0790
:107F300051F7F601A7BEE89507B600FCFDCF97BE46
:107F4000E89526C08437B1F42ED02DD0F82E2BD052
:107F50003CD0F601EF2C8F010F5F1F4F84911BD097
:107F6000EA94F801C1F70894C11CD11CFA94CF0C13
:107F7000D11C0EC0853739F428D08EE10CD085E9AC
:107F80000AD08FE07ACF813511F488E018D01DD067
:107F900080E101D065CF982F8091C00085FFFCCF94
:107FA0009093C60008958091C00087FFFCCF809118
:107FB000C00084FD01C0A8958091C6000895E0E648
:107FC000F0E098E1908380830895EDDF803219F02E
:107FD00088E0F5DFFFCF84E1DECF1F93182FE3DFCA
:107FE0001150E9F7F2DF1F91089580E0E8DFEE27F6
:047FF000FF270994CA
:027FFE00040479
:00000001FF
